{
  "contractName": "timelock",
  "abi": [
    {
      "inputs": [
        {
          "internalType": "address payable",
          "name": "_owner",
          "type": "address"
        }
      ],
      "stateMutability": "nonpayable",
      "type": "constructor"
    },
    {
      "inputs": [],
      "name": "duration",
      "outputs": [
        {
          "internalType": "uint256",
          "name": "",
          "type": "uint256"
        }
      ],
      "stateMutability": "view",
      "type": "function",
      "constant": true
    },
    {
      "inputs": [],
      "name": "end",
      "outputs": [
        {
          "internalType": "uint256",
          "name": "",
          "type": "uint256"
        }
      ],
      "stateMutability": "view",
      "type": "function",
      "constant": true
    },
    {
      "inputs": [],
      "name": "owner",
      "outputs": [
        {
          "internalType": "address payable",
          "name": "",
          "type": "address"
        }
      ],
      "stateMutability": "view",
      "type": "function",
      "constant": true
    },
    {
      "stateMutability": "payable",
      "type": "receive",
      "payable": true
    },
    {
      "inputs": [],
      "name": "timeLeft",
      "outputs": [
        {
          "internalType": "uint256",
          "name": "",
          "type": "uint256"
        }
      ],
      "stateMutability": "view",
      "type": "function",
      "constant": true
    },
    {
      "inputs": [],
      "name": "getBalance",
      "outputs": [
        {
          "internalType": "uint256",
          "name": "",
          "type": "uint256"
        }
      ],
      "stateMutability": "view",
      "type": "function",
      "constant": true
    },
    {
      "inputs": [],
      "name": "getFunds",
      "outputs": [],
      "stateMutability": "payable",
      "type": "function",
      "payable": true
    },
    {
      "inputs": [],
      "name": "withdraw",
      "outputs": [],
      "stateMutability": "payable",
      "type": "function",
      "payable": true
    }
  ],
  "bytecode": "0x60a060405234801561001057600080fd5b506040516105a13803806105a1833981810160405281019061003291906100e4565b6202a30042610041919061014a565b6000819055508073ffffffffffffffffffffffffffffffffffffffff1660808173ffffffffffffffffffffffffffffffffffffffff1681525050506101a0565b600080fd5b600073ffffffffffffffffffffffffffffffffffffffff82169050919050565b60006100b182610086565b9050919050565b6100c1816100a6565b81146100cc57600080fd5b50565b6000815190506100de816100b8565b92915050565b6000602082840312156100fa576100f9610081565b5b6000610108848285016100cf565b91505092915050565b6000819050919050565b7f4e487b7100000000000000000000000000000000000000000000000000000000600052601160045260246000fd5b600061015582610111565b915061016083610111565b9250827fffffffffffffffffffffffffffffffffffffffffffffffffffffffffffffffff038211156101955761019461011b565b5b828201905092915050565b6080516103df6101c2600039600081816101d6015261021101526103df6000f3fe6080604052600436106100745760003560e01c80633ccfd60b1161004e5780633ccfd60b146101015780634d9b37351461010b5780638da5cb5b14610115578063efbe1c1c146101405761007b565b80630fb5a6b41461008057806312065fe0146100ab5780631300a6d1146100d65761007b565b3661007b57005b600080fd5b34801561008c57600080fd5b5061009561016b565b6040516100a29190610252565b60405180910390f35b3480156100b757600080fd5b506100c0610172565b6040516100cd9190610252565b60405180910390f35b3480156100e257600080fd5b506100eb61017a565b6040516100f89190610252565b60405180910390f35b61010961018f565b005b61011361020d565b005b34801561012157600080fd5b5061012a61020f565b60405161013791906102ae565b60405180910390f35b34801561014c57600080fd5b50610155610233565b6040516101629190610252565b60405180910390f35b6202a30081565b600047905090565b60004260005461018a91906102f8565b905090565b6000544210156101d4576040517f08c379a00000000000000000000000000000000000000000000000000000000081526004016101cb90610389565b60405180910390fd5b7f000000000000000000000000000000000000000000000000000000000000000073ffffffffffffffffffffffffffffffffffffffff16ff5b565b7f000000000000000000000000000000000000000000000000000000000000000081565b60005481565b6000819050919050565b61024c81610239565b82525050565b60006020820190506102676000830184610243565b92915050565b600073ffffffffffffffffffffffffffffffffffffffff82169050919050565b60006102988261026d565b9050919050565b6102a88161028d565b82525050565b60006020820190506102c3600083018461029f565b92915050565b7f4e487b7100000000000000000000000000000000000000000000000000000000600052601160045260246000fd5b600061030382610239565b915061030e83610239565b925082821015610321576103206102c9565b5b828203905092915050565b600082825260208201905092915050565b7f6e6f742079657400000000000000000000000000000000000000000000000000600082015250565b600061037360078361032c565b915061037e8261033d565b602082019050919050565b600060208201905081810360008301526103a281610366565b905091905056fea2646970667358221220916cb587f0499649d9c6d24e7654efdd6401d00b7a21f5a3472df7fdc675dc9064736f6c634300080b0033",
  "immutableReferences": {
    "41": [
      {
        "length": 32,
        "start": 470
      },
      {
        "length": 32,
        "start": 529
      }
    ]
  },
  "source": "// SPDX-License-Identifier: GPL-3.0\r\n\r\npragma solidity ^0.8.4;\r\n\r\n\r\n\r\ncontract timelock {\r\n  uint public constant duration = 2 days;\r\n  uint public end;\r\n  address payable public immutable owner;\r\n\r\n  constructor(address payable _owner) {\r\n    end = block.timestamp + duration;\r\n    owner = _owner; \r\n  }\r\n\r\n  function timeLeft() public view returns(uint){\r\n        return end -block.timestamp;\r\n  }\r\n\r\n  function getBalance() public view returns(uint){\r\n      return address(this).balance;\r\n  }\r\n\r\n \r\n function getFunds() external payable{\r\n\r\n }\r\n\r\n  receive() external payable {}\r\n  \r\n  function withdraw() external payable{\r\n    \r\n    require(block.timestamp >= end,\"not yet\");\r\n    selfdestruct(owner);\r\n  }\r\n\r\n}\r\n ",
  "sourcePath": "C:\\Users\\El\\Desktop\\continuum\\smart-Contract\\contracts\\Timelock.sol",
  "compiler": {
    "name": "solc",
    "version": "0.8.11+commit.d7f03943.Emscripten.clang"
  },
  "schemaVersion": "3.4.5",
  "updatedAt": "2022-02-27T13:25:48.730Z",
  "networkType": "ethereum",
  "devdoc": {
    "kind": "dev",
    "methods": {},
    "version": 1
  },
  "userdoc": {
    "kind": "user",
    "methods": {},
    "version": 1
  }
}